{
  "contractName": "Rideshare",
  "abi": [
    {
      "constant": false,
      "inputs": [],
      "name": "kill",
      "outputs": [],
      "payable": false,
      "stateMutability": "nonpayable",
      "type": "function"
    },
    {
      "constant": true,
      "inputs": [
        {
          "name": "",
          "type": "uint256"
        }
      ],
      "name": "rides",
      "outputs": [
        {
          "name": "driver",
          "type": "address"
        },
        {
          "name": "drivingCost",
          "type": "uint256"
        },
        {
          "name": "capacity",
          "type": "uint256"
        },
        {
          "name": "originAddress",
          "type": "string"
        },
        {
          "name": "destAddress",
          "type": "string"
        },
        {
          "name": "createdAt",
          "type": "uint256"
        },
        {
          "name": "confirmedAt",
          "type": "uint256"
        },
        {
          "name": "departAt",
          "type": "uint256"
        }
      ],
      "payable": false,
      "stateMutability": "view",
      "type": "function"
    },
    {
      "constant": true,
      "inputs": [],
      "name": "owner",
      "outputs": [
        {
          "name": "",
          "type": "address"
        }
      ],
      "payable": false,
      "stateMutability": "view",
      "type": "function"
    },
    {
      "constant": true,
      "inputs": [],
      "name": "rideCount",
      "outputs": [
        {
          "name": "",
          "type": "uint256"
        }
      ],
      "payable": false,
      "stateMutability": "view",
      "type": "function"
    },
    {
      "constant": false,
      "inputs": [
        {
          "name": "newOwner",
          "type": "address"
        }
      ],
      "name": "transferOwnership",
      "outputs": [],
      "payable": false,
      "stateMutability": "nonpayable",
      "type": "function"
    },
    {
      "constant": false,
      "inputs": [
        {
          "name": "_driverCost",
          "type": "uint256"
        },
        {
          "name": "_capacity",
          "type": "uint256"
        },
        {
          "name": "_originAddress",
          "type": "string"
        },
        {
          "name": "_destAddress",
          "type": "string"
        },
        {
          "name": "_confirmedAt",
          "type": "uint256"
        },
        {
          "name": "_departAt",
          "type": "uint256"
        }
      ],
      "name": "createRide",
      "outputs": [],
      "payable": false,
      "stateMutability": "nonpayable",
      "type": "function"
    },
    {
      "constant": false,
      "inputs": [
        {
          "name": "rideNumber",
          "type": "uint256"
        }
      ],
      "name": "joinRide",
      "outputs": [],
      "payable": true,
      "stateMutability": "payable",
      "type": "function"
    },
    {
      "constant": true,
      "inputs": [
        {
          "name": "rideNumber",
          "type": "uint256"
        }
      ],
      "name": "getPassengers",
      "outputs": [
        {
          "name": "",
          "type": "address[]"
        }
      ],
      "payable": false,
      "stateMutability": "view",
      "type": "function"
    },
    {
      "constant": true,
      "inputs": [
        {
          "name": "rideNumber",
          "type": "uint256"
        },
        {
          "name": "passenger",
          "type": "address"
        }
      ],
      "name": "getPassengerRideState",
      "outputs": [
        {
          "name": "",
          "type": "string"
        }
      ],
      "payable": false,
      "stateMutability": "view",
      "type": "function"
    },
    {
      "constant": true,
      "inputs": [
        {
          "name": "rideNumber",
          "type": "uint256"
        }
      ],
      "name": "getRide",
      "outputs": [
        {
          "name": "_driver",
          "type": "address"
        },
        {
          "name": "_drivingCost",
          "type": "uint256"
        },
        {
          "name": "_capacity",
          "type": "uint256"
        },
        {
          "name": "_originAddress",
          "type": "string"
        },
        {
          "name": "_destAddress",
          "type": "string"
        },
        {
          "name": "_createdAt",
          "type": "uint256"
        },
        {
          "name": "_confirmedAt",
          "type": "uint256"
        },
        {
          "name": "_departAt",
          "type": "uint256"
        }
      ],
      "payable": false,
      "stateMutability": "view",
      "type": "function"
    },
    {
      "constant": true,
      "inputs": [],
      "name": "getRideCount",
      "outputs": [
        {
          "name": "",
          "type": "uint256"
        }
      ],
      "payable": false,
      "stateMutability": "view",
      "type": "function"
    },
    {
      "constant": false,
      "inputs": [
        {
          "name": "rideNumber",
          "type": "uint256"
        },
        {
          "name": "passengerAcct",
          "type": "address"
        }
      ],
      "name": "passengerInRide",
      "outputs": [
        {
          "name": "",
          "type": "bool"
        }
      ],
      "payable": false,
      "stateMutability": "nonpayable",
      "type": "function"
    },
    {
      "constant": false,
      "inputs": [
        {
          "name": "rideNumber",
          "type": "uint256"
        }
      ],
      "name": "cancelRide",
      "outputs": [],
      "payable": false,
      "stateMutability": "nonpayable",
      "type": "function"
    },
    {
      "constant": false,
      "inputs": [
        {
          "name": "rideNumber",
          "type": "uint256"
        }
      ],
      "name": "confirmDriverMet",
      "outputs": [],
      "payable": false,
      "stateMutability": "nonpayable",
      "type": "function"
    },
    {
      "constant": false,
      "inputs": [
        {
          "name": "rideNumber",
          "type": "uint256"
        },
        {
          "name": "passengerAddresses",
          "type": "address[]"
        }
      ],
      "name": "confirmPassengersMet",
      "outputs": [],
      "payable": false,
      "stateMutability": "nonpayable",
      "type": "function"
    },
    {
      "constant": true,
      "inputs": [
        {
          "name": "rideNumber",
          "type": "uint256"
        }
      ],
      "name": "enRouteList",
      "outputs": [
        {
          "name": "",
          "type": "address[]"
        }
      ],
      "payable": false,
      "stateMutability": "view",
      "type": "function"
    },
    {
      "constant": false,
      "inputs": [
        {
          "name": "rideNumber",
          "type": "uint256"
        }
      ],
      "name": "arrived",
      "outputs": [],
      "payable": false,
      "stateMutability": "nonpayable",
      "type": "function"
    }
  ],
  "bytecode": "0x6080604052336000806101000a81548173ffffffffffffffffffffffffffffffffffffffff021916908373ffffffffffffffffffffffffffffffffffffffff1602179055506120d0806100536000396000f3006080604052600436106100f1576000357c0100000000000000000000000000000000000000000000000000000000900463ffffffff16806301f32206146100f65780631124ab491461011657806321c1fc7f1461018657806341c0e1b5146102085780635205f1121461021f5780636d4d31f2146103875780637c7b0ff4146104095780638959a5d1146105715780638da5cb5b1461059c5780638e90c5a2146105f3578063977c876e146106b9578063a6f07b2914610790578063b47c1883146107bd578063c4ef54d6146107e8578063f2c46f721461084d578063f2fde38b1461087a578063fd4e1305146108bd575b600080fd5b610114600480360381019080803590602001909291905050506108ea565b005b34801561012257600080fd5b506101846004803603810190808035906020019092919080359060200190820180359060200190808060200260200160405190810160405280939291908181526020018383602002808284378201915050505050509192919290505050610a43565b005b34801561019257600080fd5b506101b160048036038101908080359060200190929190505050610d9b565b6040518080602001828103825283818151815260200191508051906020019060200280838360005b838110156101f45780820151818401526020810190506101d9565b505050509050019250505060405180910390f35b34801561021457600080fd5b5061021d610fb6565b005b34801561022b57600080fd5b5061024a60048036038101908080359060200190929190505050611047565b604051808973ffffffffffffffffffffffffffffffffffffffff1673ffffffffffffffffffffffffffffffffffffffff1681526020018881526020018781526020018060200180602001868152602001858152602001848152602001838103835288818151815260200191508051906020019080838360005b838110156102de5780820151818401526020810190506102c3565b50505050905090810190601f16801561030b5780820380516001836020036101000a031916815260200191505b50838103825287818151815260200191508051906020019080838360005b83811015610344578082015181840152602081019050610329565b50505050905090810190601f1680156103715780820380516001836020036101000a031916815260200191505b509a505050505050505050505060405180910390f35b34801561039357600080fd5b506103b2600480360381019080803590602001909291905050506111ee565b6040518080602001828103825283818151815260200191508051906020019060200280838360005b838110156103f55780820151818401526020810190506103da565b505050509050019250505060405180910390f35b34801561041557600080fd5b506104346004803603810190808035906020019092919050505061129c565b604051808973ffffffffffffffffffffffffffffffffffffffff1673ffffffffffffffffffffffffffffffffffffffff1681526020018881526020018781526020018060200180602001868152602001858152602001848152602001838103835288818151815260200191508051906020019080838360005b838110156104c85780820151818401526020810190506104ad565b50505050905090810190601f1680156104f55780820380516001836020036101000a031916815260200191505b50838103825287818151815260200191508051906020019080838360005b8381101561052e578082015181840152602081019050610513565b50505050905090810190601f16801561055b5780820380516001836020036101000a031916815260200191505b509a505050505050505050505060405180910390f35b34801561057d57600080fd5b50610586611463565b6040518082815260200191505060405180910390f35b3480156105a857600080fd5b506105b1611470565b604051808273ffffffffffffffffffffffffffffffffffffffff1673ffffffffffffffffffffffffffffffffffffffff16815260200191505060405180910390f35b3480156105ff57600080fd5b5061063e60048036038101908080359060200190929190803573ffffffffffffffffffffffffffffffffffffffff169060200190929190505050611495565b6040518080602001828103825283818151815260200191508051906020019080838360005b8381101561067e578082015181840152602081019050610663565b50505050905090810190601f1680156106ab5780820380516001836020036101000a031916815260200191505b509250505060405180910390f35b3480156106c557600080fd5b5061078e6004803603810190808035906020019092919080359060200190929190803590602001908201803590602001908080601f0160208091040260200160405190810160405280939291908181526020018383808284378201915050505050509192919290803590602001908201803590602001908080601f01602080910402602001604051908101604052809392919081815260200183838082843782019150505050505091929192908035906020019092919080359060200190929190505050611598565b005b34801561079c57600080fd5b506107bb600480360381019080803590602001909291905050506116fb565b005b3480156107c957600080fd5b506107d261194f565b6040518082815260200191505060405180910390f35b3480156107f457600080fd5b5061083360048036038101908080359060200190929190803573ffffffffffffffffffffffffffffffffffffffff169060200190929190505050611955565b604051808215151515815260200191505060405180910390f35b34801561085957600080fd5b5061087860048036038101908080359060200190929190505050611a1f565b005b34801561088657600080fd5b506108bb600480360381019080803573ffffffffffffffffffffffffffffffffffffffff169060200190929190505050611b96565b005b3480156108c957600080fd5b506108e860048036038101908080359060200190929190505050611c66565b005b6000806001838154811015156108fc57fe5b90600052602060002090600a0201915081600101543414151561091e57600080fd5b8160080160003373ffffffffffffffffffffffffffffffffffffffff1673ffffffffffffffffffffffffffffffffffffffff16815260200190815260200160002090503481600001819055506040805190810160405280600781526020017f696e697469616c000000000000000000000000000000000000000000000000008152508160010190805190602001906109b7929190611eb2565b50600180848154811015156109c857fe5b90600052602060002090600a02016009013390806001815401808255809150509060018203906000526020600020016000909192909190916101000a81548173ffffffffffffffffffffffffffffffffffffffff021916908373ffffffffffffffffffffffffffffffffffffffff1602179055505050505050565b6000806000600185815481101515610a5757fe5b90600052602060002090600a020192508260000160009054906101000a900473ffffffffffffffffffffffffffffffffffffffff1673ffffffffffffffffffffffffffffffffffffffff163373ffffffffffffffffffffffffffffffffffffffff16141515610ac557600080fd5b600091505b8351821015610d94578260080160008584815181101515610ae757fe5b9060200190602002015173ffffffffffffffffffffffffffffffffffffffff1673ffffffffffffffffffffffffffffffffffffffff168152602001908152602001600020600101905060405180807f647269766572436f6e6669726d65640000000000000000000000000000000000815250600f0190506040518091039020600019168360080160008685815181101515610b7e57fe5b9060200190602002015173ffffffffffffffffffffffffffffffffffffffff1673ffffffffffffffffffffffffffffffffffffffff1681526020019081526020016000206001016040518082805460018160011615610100020316600290048015610c205780601f10610bfe576101008083540402835291820191610c20565b820191906000526020600020905b815481529060010190602001808311610c0c575b50509150506040518091039020600019161415610ce1576040805190810160405280600781526020017f656e526f757465000000000000000000000000000000000000000000000000008152508360080160008685815181101515610c8157fe5b9060200190602002015173ffffffffffffffffffffffffffffffffffffffff1673ffffffffffffffffffffffffffffffffffffffff1681526020019081526020016000206001019080519060200190610cdb929190611eb2565b50610d87565b6040805190810160405280601381526020017f70617373656e67657273436f6e6669726d6564000000000000000000000000008152508360080160008685815181101515610d2b57fe5b9060200190602002015173ffffffffffffffffffffffffffffffffffffffff1673ffffffffffffffffffffffffffffffffffffffff1681526020019081526020016000206001019080519060200190610d85929190611eb2565b505b8180600101925050610aca565b5050505050565b60606000806000600185815481101515610db157fe5b90600052602060002090600a02019250600090505b8260090180549050811015610fae5760405180807f656e526f7574650000000000000000000000000000000000000000000000000081525060070190506040518091039020600019168360080160008560090184815481101515610e2657fe5b9060005260206000200160009054906101000a900473ffffffffffffffffffffffffffffffffffffffff1673ffffffffffffffffffffffffffffffffffffffff1673ffffffffffffffffffffffffffffffffffffffff1681526020019081526020016000206001016040518082805460018160011615610100020316600290048015610ee95780601f10610ec7576101008083540402835291820191610ee9565b820191906000526020600020905b815481529060010190602001808311610ed5575b50509150506040518091039020600019161415610fa157818360090182815481101515610f1257fe5b9060005260206000200160009054906101000a900473ffffffffffffffffffffffffffffffffffffffff1690806001815401808255809150509060018203906000526020600020016000909192909190916101000a81548173ffffffffffffffffffffffffffffffffffffffff021916908373ffffffffffffffffffffffffffffffffffffffff160217905550505b8080600101915050610dc6565b505050919050565b6000809054906101000a900473ffffffffffffffffffffffffffffffffffffffff1673ffffffffffffffffffffffffffffffffffffffff163373ffffffffffffffffffffffffffffffffffffffff161415611045576000809054906101000a900473ffffffffffffffffffffffffffffffffffffffff1673ffffffffffffffffffffffffffffffffffffffff16ff5b565b60018181548110151561105657fe5b90600052602060002090600a02016000915090508060000160009054906101000a900473ffffffffffffffffffffffffffffffffffffffff1690806001015490806002015490806003018054600181600116156101000203166002900480601f0160208091040260200160405190810160405280929190818152602001828054600181600116156101000203166002900480156111345780601f1061110957610100808354040283529160200191611134565b820191906000526020600020905b81548152906001019060200180831161111757829003601f168201915b505050505090806004018054600181600116156101000203166002900480601f0160208091040260200160405190810160405280929190818152602001828054600181600116156101000203166002900480156111d25780601f106111a7576101008083540402835291602001916111d2565b820191906000526020600020905b8154815290600101906020018083116111b557829003601f168201915b5050505050908060050154908060060154908060070154905088565b60606001828154811015156111ff57fe5b90600052602060002090600a020160090180548060200260200160405190810160405280929190818152602001828054801561129057602002820191906000526020600020905b8160009054906101000a900473ffffffffffffffffffffffffffffffffffffffff1673ffffffffffffffffffffffffffffffffffffffff1681526020019060010190808311611246575b50505050509050919050565b600080600060608060008060008060018a8154811015156112b957fe5b90600052602060002090600a020190508060000160009054906101000a900473ffffffffffffffffffffffffffffffffffffffff16816001015482600201548360030184600401856005015486600601548760070154848054600181600116156101000203166002900480601f0160208091040260200160405190810160405280929190818152602001828054600181600116156101000203166002900480156113a45780601f10611379576101008083540402835291602001916113a4565b820191906000526020600020905b81548152906001019060200180831161138757829003601f168201915b50505050509450838054600181600116156101000203166002900480601f0160208091040260200160405190810160405280929190818152602001828054600181600116156101000203166002900480156114405780601f1061141557610100808354040283529160200191611440565b820191906000526020600020905b81548152906001019060200180831161142357829003601f168201915b505050505093509850985098509850985098509850985050919395975091939597565b6000600180549050905090565b6000809054906101000a900473ffffffffffffffffffffffffffffffffffffffff1681565b60606001838154811015156114a657fe5b90600052602060002090600a020160080160008373ffffffffffffffffffffffffffffffffffffffff1673ffffffffffffffffffffffffffffffffffffffff1681526020019081526020016000206001018054600181600116156101000203166002900480601f01602080910402602001604051908101604052809291908181526020018280546001816001161561010002031660029004801561158b5780601f106115605761010080835404028352916020019161158b565b820191906000526020600020905b81548152906001019060200180831161156e57829003601f168201915b5050505050905092915050565b60606001610120604051908101604052803373ffffffffffffffffffffffffffffffffffffffff168152602001898152602001888152602001878152602001868152602001428152602001858152602001848152602001838152509080600181540180825580915050906001820390600052602060002090600a02016000909192909190915060008201518160000160006101000a81548173ffffffffffffffffffffffffffffffffffffffff021916908373ffffffffffffffffffffffffffffffffffffffff16021790555060208201518160010155604082015181600201556060820151816003019080519060200190611695929190611f32565b5060808201518160040190805190602001906116b2929190611f32565b5060a0820151816005015560c0820151816006015560e082015181600701556101008201518160090190805190602001906116ee929190611fb2565b5050505050505050505050565b60008060018381548110151561170d57fe5b90600052602060002090600a0201915081600601544210151561172f57600080fd5b8160000160009054906101000a900473ffffffffffffffffffffffffffffffffffffffff1673ffffffffffffffffffffffffffffffffffffffff163373ffffffffffffffffffffffffffffffffffffffff1614156118ae57600090505b81600901805490508110156118a95781600901818154811015156117ac57fe5b9060005260206000200160009054906101000a900473ffffffffffffffffffffffffffffffffffffffff1673ffffffffffffffffffffffffffffffffffffffff166108fc836008016000856009018581548110151561180757fe5b9060005260206000200160009054906101000a900473ffffffffffffffffffffffffffffffffffffffff1673ffffffffffffffffffffffffffffffffffffffff1673ffffffffffffffffffffffffffffffffffffffff168152602001908152602001600020600001549081150290604051600060405180830381858888f1935050505015801561189b573d6000803e3d6000fd5b50808060010191505061178c565b61194a565b6118b88333611955565b15611949573373ffffffffffffffffffffffffffffffffffffffff166108fc8360080160003373ffffffffffffffffffffffffffffffffffffffff1673ffffffffffffffffffffffffffffffffffffffff168152602001908152602001600020600001549081150290604051600060405180830381858888f19350505050158015611947573d6000803e3d6000fd5b505b5b505050565b60025481565b600080600060018581548110151561196957fe5b90600052602060002090600a02019150600090505b8160090180549050811015611a12578373ffffffffffffffffffffffffffffffffffffffff1682600901828154811015156119b557fe5b9060005260206000200160009054906101000a900473ffffffffffffffffffffffffffffffffffffffff1673ffffffffffffffffffffffffffffffffffffffff161415611a055760019250611a17565b808060010191505061197e565b600092505b505092915050565b6000611a2b8233611955565b1515611a3657600080fd5b600182815481101515611a4557fe5b90600052602060002090600a020190508060000160009054906101000a900473ffffffffffffffffffffffffffffffffffffffff1673ffffffffffffffffffffffffffffffffffffffff166108fc8260080160003373ffffffffffffffffffffffffffffffffffffffff1673ffffffffffffffffffffffffffffffffffffffff168152602001908152602001600020600001549081150290604051600060405180830381858888f19350505050158015611b03573d6000803e3d6000fd5b506040805190810160405280600a81526020017f636f6d706c6574696f6e000000000000000000000000000000000000000000008152508160080160003373ffffffffffffffffffffffffffffffffffffffff1673ffffffffffffffffffffffffffffffffffffffff1681526020019081526020016000206001019080519060200190611b91929190611eb2565b505050565b6000809054906101000a900473ffffffffffffffffffffffffffffffffffffffff1673ffffffffffffffffffffffffffffffffffffffff163373ffffffffffffffffffffffffffffffffffffffff161415611c6357600073ffffffffffffffffffffffffffffffffffffffff168173ffffffffffffffffffffffffffffffffffffffff16141515611c6257806000806101000a81548173ffffffffffffffffffffffffffffffffffffffff021916908373ffffffffffffffffffffffffffffffffffffffff1602179055505b5b50565b6000611c728233611955565b1515611c7d57600080fd5b600182815481101515611c8c57fe5b90600052602060002090600a0201905060405180807f70617373656e67657273436f6e6669726d65640000000000000000000000000081525060130190506040518091039020600019168160080160003373ffffffffffffffffffffffffffffffffffffffff1673ffffffffffffffffffffffffffffffffffffffff1681526020019081526020016000206001016040518082805460018160011615610100020316600290048015611d755780601f10611d53576101008083540402835291820191611d75565b820191906000526020600020905b815481529060010190602001808311611d61575b50509150506040518091039020600019161415611e1f576040805190810160405280600781526020017f656e526f757465000000000000000000000000000000000000000000000000008152508160080160003373ffffffffffffffffffffffffffffffffffffffff1673ffffffffffffffffffffffffffffffffffffffff1681526020019081526020016000206001019080519060200190611e19929190611eb2565b50611eae565b6040805190810160405280600f81526020017f647269766572436f6e6669726d656400000000000000000000000000000000008152508160080160003373ffffffffffffffffffffffffffffffffffffffff1673ffffffffffffffffffffffffffffffffffffffff1681526020019081526020016000206001019080519060200190611eac929190611eb2565b505b5050565b828054600181600116156101000203166002900490600052602060002090601f016020900481019282601f10611ef357805160ff1916838001178555611f21565b82800160010185558215611f21579182015b82811115611f20578251825591602001919060010190611f05565b5b509050611f2e919061203c565b5090565b828054600181600116156101000203166002900490600052602060002090601f016020900481019282601f10611f7357805160ff1916838001178555611fa1565b82800160010185558215611fa1579182015b82811115611fa0578251825591602001919060010190611f85565b5b509050611fae919061203c565b5090565b82805482825590600052602060002090810192821561202b579160200282015b8281111561202a5782518260006101000a81548173ffffffffffffffffffffffffffffffffffffffff021916908373ffffffffffffffffffffffffffffffffffffffff16021790555091602001919060010190611fd2565b5b5090506120389190612061565b5090565b61205e91905b8082111561205a576000816000905550600101612042565b5090565b90565b6120a191905b8082111561209d57600081816101000a81549073ffffffffffffffffffffffffffffffffffffffff021916905550600101612067565b5090565b905600a165627a7a7230582062d34bc67ab7be43f4e97e8f54f8739b1886e0ed8020a8370cd95cae5ccc3a450029",
  "source": "pragma solidity ^0.4.2;\n\nimport './zeppelin/lifecycle/Killable.sol';\n\ncontract Rideshare is Killable {\n  struct Passenger {\n    uint price;\n    string state; // initial, driverConfirmed, passengerConfirmed, enRoute, completion, canceled\n  }\n\n  struct Ride {\n    address driver;\n    uint drivingCost;\n    uint capacity;\n    string originAddress;\n    string destAddress;\n    uint createdAt;\n    uint confirmedAt;\n    uint departAt;\n    mapping (address => Passenger) passengers;\n    address[] passengerAccts;\n  }\n  \n  Ride[] public rides;\n  uint public rideCount;\n\n  mapping (address => uint) reputation;\n  \n  // for now, only drivers can create Rides\n  function createRide(uint _driverCost, uint _capacity, string _originAddress, string _destAddress, uint _confirmedAt, uint _departAt) {\n    address[] memory _passengerAccts;\n    rides.push(Ride(msg.sender, _driverCost, _capacity, _originAddress, _destAddress, block.timestamp, _confirmedAt, _departAt, _passengerAccts));\n  }\n  \n  // called by passenger\n  function joinRide(uint rideNumber) public payable {\n    Ride curRide = rides[rideNumber];\n    require(msg.value == curRide.drivingCost);\n\n    var passenger = curRide.passengers[msg.sender];    \n    \n    passenger.price = msg.value;\n    passenger.state = \"initial\";\n    \n    rides[rideNumber].passengerAccts.push(msg.sender) -1; //***\n  }\n  \n  function getPassengers(uint rideNumber) view public returns(address[]) {\n    return rides[rideNumber].passengerAccts;\n  }\n\n  function getPassengerRideState(uint rideNumber, address passenger) view public returns(string) {\n    return rides[rideNumber].passengers[passenger].state;\n  }\n\n  function getRide(uint rideNumber) public view returns (\n    address _driver,\n    uint _drivingCost,\n    uint _capacity,\n    string _originAddress,\n    string _destAddress,\n    uint _createdAt,\n    uint _confirmedAt,\n    uint _departAt\n  ) {\n    Ride ride = rides[rideNumber];\n    return (\n      ride.driver,\n      ride.drivingCost,\n      ride.capacity,\n      ride.originAddress,\n      ride.destAddress,\n      ride.createdAt,\n      ride.confirmedAt,\n      ride.departAt\n    );\n  }\n\n  function getRideCount() public constant returns(uint) {\n    return rides.length;\n  }\n  \n  function passengerInRide(uint rideNumber, address passengerAcct) returns (bool) {\n    Ride curRide = rides[rideNumber];\n    for(uint i = 0; i < curRide.passengerAccts.length; i++) {\n      if (curRide.passengerAccts[i] == passengerAcct) {\n        return true;\n      }\n    }\n    return false;\n  }\n  \n  function cancelRide(uint rideNumber) {\n    Ride curRide = rides[rideNumber];\n    require(block.timestamp < curRide.confirmedAt);\n    if (msg.sender == curRide.driver) {\n      for (uint i = 0; i < curRide.passengerAccts.length; i++) {\n        curRide.passengerAccts[i].transfer(curRide.passengers[curRide.passengerAccts[i]].price);\n      }\n    } else if (passengerInRide(rideNumber, msg.sender)) {\n      msg.sender.transfer(curRide.passengers[msg.sender].price);\n    }\n  }\n  \n  // called by passenger\n  function confirmDriverMet(uint rideNumber) {\n    require(passengerInRide(rideNumber, msg.sender));\n    Ride curRide = rides[rideNumber];\n    if (keccak256(curRide.passengers[msg.sender].state) == keccak256(\"passengersConfirmed\")) {\n      curRide.passengers[msg.sender].state = \"enRoute\";\n    } else {\n      curRide.passengers[msg.sender].state = \"driverConfirmed\";\n    }\n  }\n  \n  // called by driver\n  function confirmPassengersMet(uint rideNumber, address[] passengerAddresses) {\n    Ride curRide = rides[rideNumber];\n    require(msg.sender == curRide.driver);\n    for(uint i=0; i < passengerAddresses.length; i++) {\n      string curState = curRide.passengers[passengerAddresses[i]].state;\n      if (keccak256(curRide.passengers[passengerAddresses[i]].state) == keccak256(\"driverConfirmed\")) {\n        curRide.passengers[passengerAddresses[i]].state = \"enRoute\";\n      } else {\n        curRide.passengers[passengerAddresses[i]].state = \"passengersConfirmed\";\n      }\n    }\n    // require(rides[rideNumber].state == \"confirmed\");\n  }\n\n  function enRouteList(uint rideNumber) view public returns(address[]) {\n    Ride curRide = rides[rideNumber];\n    address[] addressesEnRoute;\n    for(uint i = 0; i < curRide.passengerAccts.length; i++) {\n      if (keccak256(curRide.passengers[curRide.passengerAccts[i]].state) == keccak256(\"enRoute\")) {\n        addressesEnRoute.push(curRide.passengerAccts[i]);\n      }\n    }\n  }\n  \n  // called by passenger\n  function arrived(uint rideNumber) {\n    require(passengerInRide(rideNumber, msg.sender));\n    Ride curRide = rides[rideNumber];\n    curRide.driver.transfer(curRide.passengers[msg.sender].price);\n    curRide.passengers[msg.sender].state = \"completion\";\n  }\n}\n",
  "sourcePath": "/home/ramji/DriveShare/contracts/Rideshare.sol",
  "compiler": {
    "name": "solc",
    "version": "0.4.26+commit.4563c3fc.Emscripten.clang"
  },
  "schemaVersion": "3.3.4",
  "updatedAt": "2021-04-16T20:03:04.308Z",
  "devdoc": {
    "methods": {}
  },
  "userdoc": {
    "methods": {}
  }
}