{
  "contractName": "Rideshare",
  "abi": [
    {
      "constant": false,
      "inputs": [],
      "name": "kill",
      "outputs": [],
      "payable": false,
      "stateMutability": "nonpayable",
      "type": "function"
    },
    {
      "constant": true,
      "inputs": [
        {
          "name": "",
          "type": "uint256"
        }
      ],
      "name": "rides",
      "outputs": [
        {
          "name": "driver",
          "type": "address"
        },
        {
          "name": "drivingCost",
          "type": "uint256"
        },
        {
          "name": "capacity",
          "type": "uint256"
        },
        {
          "name": "originAddress",
          "type": "string"
        },
        {
          "name": "destAddress",
          "type": "string"
        },
        {
          "name": "createdAt",
          "type": "uint256"
        },
        {
          "name": "confirmedAt",
          "type": "uint256"
        },
        {
          "name": "departAt",
          "type": "uint256"
        }
      ],
      "payable": false,
      "stateMutability": "view",
      "type": "function"
    },
    {
      "constant": true,
      "inputs": [],
      "name": "owner",
      "outputs": [
        {
          "name": "",
          "type": "address"
        }
      ],
      "payable": false,
      "stateMutability": "view",
      "type": "function"
    },
    {
      "constant": true,
      "inputs": [],
      "name": "rideCount",
      "outputs": [
        {
          "name": "",
          "type": "uint256"
        }
      ],
      "payable": false,
      "stateMutability": "view",
      "type": "function"
    },
    {
      "constant": false,
      "inputs": [
        {
          "name": "newOwner",
          "type": "address"
        }
      ],
      "name": "transferOwnership",
      "outputs": [],
      "payable": false,
      "stateMutability": "nonpayable",
      "type": "function"
    },
    {
      "constant": false,
      "inputs": [
        {
          "name": "_driverCost",
          "type": "uint256"
        },
        {
          "name": "_capacity",
          "type": "uint256"
        },
        {
          "name": "_originAddress",
          "type": "string"
        },
        {
          "name": "_destAddress",
          "type": "string"
        },
        {
          "name": "_confirmedAt",
          "type": "uint256"
        },
        {
          "name": "_departAt",
          "type": "uint256"
        }
      ],
      "name": "createRide",
      "outputs": [],
      "payable": false,
      "stateMutability": "nonpayable",
      "type": "function"
    },
    {
      "constant": false,
      "inputs": [
        {
          "name": "rideNumber",
          "type": "uint256"
        }
      ],
      "name": "joinRide",
      "outputs": [],
      "payable": true,
      "stateMutability": "payable",
      "type": "function"
    },
    {
      "constant": true,
      "inputs": [
        {
          "name": "rideNumber",
          "type": "uint256"
        }
      ],
      "name": "getPassengers",
      "outputs": [
        {
          "name": "",
          "type": "address[]"
        }
      ],
      "payable": false,
      "stateMutability": "view",
      "type": "function"
    },
    {
      "constant": true,
      "inputs": [
        {
          "name": "rideNumber",
          "type": "uint256"
        },
        {
          "name": "passenger",
          "type": "address"
        }
      ],
      "name": "getPassengerRideState",
      "outputs": [
        {
          "name": "",
          "type": "string"
        }
      ],
      "payable": false,
      "stateMutability": "view",
      "type": "function"
    },
    {
      "constant": true,
      "inputs": [
        {
          "name": "rideNumber",
          "type": "uint256"
        }
      ],
      "name": "getRide",
      "outputs": [
        {
          "name": "_driver",
          "type": "address"
        },
        {
          "name": "_drivingCost",
          "type": "uint256"
        },
        {
          "name": "_capacity",
          "type": "uint256"
        },
        {
          "name": "_originAddress",
          "type": "string"
        },
        {
          "name": "_destAddress",
          "type": "string"
        },
        {
          "name": "_createdAt",
          "type": "uint256"
        },
        {
          "name": "_confirmedAt",
          "type": "uint256"
        },
        {
          "name": "_departAt",
          "type": "uint256"
        }
      ],
      "payable": false,
      "stateMutability": "view",
      "type": "function"
    },
    {
      "constant": true,
      "inputs": [],
      "name": "getRideCount",
      "outputs": [
        {
          "name": "",
          "type": "uint256"
        }
      ],
      "payable": false,
      "stateMutability": "view",
      "type": "function"
    },
    {
      "constant": false,
      "inputs": [
        {
          "name": "rideNumber",
          "type": "uint256"
        },
        {
          "name": "passengerAcct",
          "type": "address"
        }
      ],
      "name": "passengerInRide",
      "outputs": [
        {
          "name": "",
          "type": "bool"
        }
      ],
      "payable": false,
      "stateMutability": "nonpayable",
      "type": "function"
    },
    {
      "constant": false,
      "inputs": [
        {
          "name": "rideNumber",
          "type": "uint256"
        }
      ],
      "name": "cancelRide",
      "outputs": [],
      "payable": false,
      "stateMutability": "nonpayable",
      "type": "function"
    },
    {
      "constant": false,
      "inputs": [
        {
          "name": "rideNumber",
          "type": "uint256"
        }
      ],
      "name": "confirmDriverMet",
      "outputs": [],
      "payable": false,
      "stateMutability": "nonpayable",
      "type": "function"
    },
    {
      "constant": false,
      "inputs": [
        {
          "name": "rideNumber",
          "type": "uint256"
        },
        {
          "name": "passengerAddresses",
          "type": "address[]"
        }
      ],
      "name": "confirmPassengersMet",
      "outputs": [],
      "payable": false,
      "stateMutability": "nonpayable",
      "type": "function"
    },
    {
      "constant": true,
      "inputs": [
        {
          "name": "rideNumber",
          "type": "uint256"
        }
      ],
      "name": "enRouteList",
      "outputs": [
        {
          "name": "",
          "type": "address[]"
        }
      ],
      "payable": false,
      "stateMutability": "view",
      "type": "function"
    },
    {
      "constant": false,
      "inputs": [
        {
          "name": "rideNumber",
          "type": "uint256"
        }
      ],
      "name": "arrived",
      "outputs": [],
      "payable": false,
      "stateMutability": "nonpayable",
      "type": "function"
    }
  ],
  "bytecode": "0x6080604052336000806101000a81548173ffffffffffffffffffffffffffffffffffffffff021916908373ffffffffffffffffffffffffffffffffffffffff16021790555061212f806100536000396000f3006080604052600436106100f1576000357c0100000000000000000000000000000000000000000000000000000000900463ffffffff16806301f32206146100f65780631124ab491461011657806321c1fc7f1461018657806341c0e1b5146102085780635205f1121461021f5780636d4d31f2146103875780637c7b0ff4146104095780638959a5d1146105715780638da5cb5b1461059c5780638e90c5a2146105f3578063977c876e146106b9578063a6f07b2914610790578063b47c1883146107bd578063c4ef54d6146107e8578063f2c46f721461084d578063f2fde38b1461087a578063fd4e1305146108bd575b600080fd5b610114600480360381019080803590602001909291905050506108ea565b005b34801561012257600080fd5b506101846004803603810190808035906020019092919080359060200190820180359060200190808060200260200160405190810160405280939291908181526020018383602002808284378201915050505050509192919290505050610aa2565b005b34801561019257600080fd5b506101b160048036038101908080359060200190929190505050610dfa565b6040518080602001828103825283818151815260200191508051906020019060200280838360005b838110156101f45780820151818401526020810190506101d9565b505050509050019250505060405180910390f35b34801561021457600080fd5b5061021d611015565b005b34801561022b57600080fd5b5061024a600480360381019080803590602001909291905050506110a6565b604051808973ffffffffffffffffffffffffffffffffffffffff1673ffffffffffffffffffffffffffffffffffffffff1681526020018881526020018781526020018060200180602001868152602001858152602001848152602001838103835288818151815260200191508051906020019080838360005b838110156102de5780820151818401526020810190506102c3565b50505050905090810190601f16801561030b5780820380516001836020036101000a031916815260200191505b50838103825287818151815260200191508051906020019080838360005b83811015610344578082015181840152602081019050610329565b50505050905090810190601f1680156103715780820380516001836020036101000a031916815260200191505b509a505050505050505050505060405180910390f35b34801561039357600080fd5b506103b26004803603810190808035906020019092919050505061124d565b6040518080602001828103825283818151815260200191508051906020019060200280838360005b838110156103f55780820151818401526020810190506103da565b505050509050019250505060405180910390f35b34801561041557600080fd5b50610434600480360381019080803590602001909291905050506112fb565b604051808973ffffffffffffffffffffffffffffffffffffffff1673ffffffffffffffffffffffffffffffffffffffff1681526020018881526020018781526020018060200180602001868152602001858152602001848152602001838103835288818151815260200191508051906020019080838360005b838110156104c85780820151818401526020810190506104ad565b50505050905090810190601f1680156104f55780820380516001836020036101000a031916815260200191505b50838103825287818151815260200191508051906020019080838360005b8381101561052e578082015181840152602081019050610513565b50505050905090810190601f16801561055b5780820380516001836020036101000a031916815260200191505b509a505050505050505050505060405180910390f35b34801561057d57600080fd5b506105866114c2565b6040518082815260200191505060405180910390f35b3480156105a857600080fd5b506105b16114cf565b604051808273ffffffffffffffffffffffffffffffffffffffff1673ffffffffffffffffffffffffffffffffffffffff16815260200191505060405180910390f35b3480156105ff57600080fd5b5061063e60048036038101908080359060200190929190803573ffffffffffffffffffffffffffffffffffffffff1690602001909291905050506114f4565b6040518080602001828103825283818151815260200191508051906020019080838360005b8381101561067e578082015181840152602081019050610663565b50505050905090810190601f1680156106ab5780820380516001836020036101000a031916815260200191505b509250505060405180910390f35b3480156106c557600080fd5b5061078e6004803603810190808035906020019092919080359060200190929190803590602001908201803590602001908080601f0160208091040260200160405190810160405280939291908181526020018383808284378201915050505050509192919290803590602001908201803590602001908080601f016020809104026020016040519081016040528093929190818152602001838380828437820191505050505050919291929080359060200190929190803590602001909291905050506115f7565b005b34801561079c57600080fd5b506107bb6004803603810190808035906020019092919050505061175a565b005b3480156107c957600080fd5b506107d26119ae565b6040518082815260200191505060405180910390f35b3480156107f457600080fd5b5061083360048036038101908080359060200190929190803573ffffffffffffffffffffffffffffffffffffffff1690602001909291905050506119b4565b604051808215151515815260200191505060405180910390f35b34801561085957600080fd5b5061087860048036038101908080359060200190929190505050611a7e565b005b34801561088657600080fd5b506108bb600480360381019080803573ffffffffffffffffffffffffffffffffffffffff169060200190929190505050611bf5565b005b3480156108c957600080fd5b506108e860048036038101908080359060200190929190505050611cc5565b005b6000806001838154811015156108fc57fe5b90600052602060002090600a020191508160000160009054906101000a900473ffffffffffffffffffffffffffffffffffffffff1673ffffffffffffffffffffffffffffffffffffffff163373ffffffffffffffffffffffffffffffffffffffff161415151561096b57600080fd5b81600101543414151561097d57600080fd5b8160080160003373ffffffffffffffffffffffffffffffffffffffff1673ffffffffffffffffffffffffffffffffffffffff16815260200190815260200160002090503481600001819055506040805190810160405280600781526020017f696e697469616c00000000000000000000000000000000000000000000000000815250816001019080519060200190610a16929190611f11565b5060018084815481101515610a2757fe5b90600052602060002090600a02016009013390806001815401808255809150509060018203906000526020600020016000909192909190916101000a81548173ffffffffffffffffffffffffffffffffffffffff021916908373ffffffffffffffffffffffffffffffffffffffff1602179055505050505050565b6000806000600185815481101515610ab657fe5b90600052602060002090600a020192508260000160009054906101000a900473ffffffffffffffffffffffffffffffffffffffff1673ffffffffffffffffffffffffffffffffffffffff163373ffffffffffffffffffffffffffffffffffffffff16141515610b2457600080fd5b600091505b8351821015610df3578260080160008584815181101515610b4657fe5b9060200190602002015173ffffffffffffffffffffffffffffffffffffffff1673ffffffffffffffffffffffffffffffffffffffff168152602001908152602001600020600101905060405180807f647269766572436f6e6669726d65640000000000000000000000000000000000815250600f0190506040518091039020600019168360080160008685815181101515610bdd57fe5b9060200190602002015173ffffffffffffffffffffffffffffffffffffffff1673ffffffffffffffffffffffffffffffffffffffff1681526020019081526020016000206001016040518082805460018160011615610100020316600290048015610c7f5780601f10610c5d576101008083540402835291820191610c7f565b820191906000526020600020905b815481529060010190602001808311610c6b575b50509150506040518091039020600019161415610d40576040805190810160405280600781526020017f656e526f757465000000000000000000000000000000000000000000000000008152508360080160008685815181101515610ce057fe5b9060200190602002015173ffffffffffffffffffffffffffffffffffffffff1673ffffffffffffffffffffffffffffffffffffffff1681526020019081526020016000206001019080519060200190610d3a929190611f11565b50610de6565b6040805190810160405280601381526020017f70617373656e67657273436f6e6669726d6564000000000000000000000000008152508360080160008685815181101515610d8a57fe5b9060200190602002015173ffffffffffffffffffffffffffffffffffffffff1673ffffffffffffffffffffffffffffffffffffffff1681526020019081526020016000206001019080519060200190610de4929190611f11565b505b8180600101925050610b29565b5050505050565b60606000806000600185815481101515610e1057fe5b90600052602060002090600a02019250600090505b826009018054905081101561100d5760405180807f656e526f7574650000000000000000000000000000000000000000000000000081525060070190506040518091039020600019168360080160008560090184815481101515610e8557fe5b9060005260206000200160009054906101000a900473ffffffffffffffffffffffffffffffffffffffff1673ffffffffffffffffffffffffffffffffffffffff1673ffffffffffffffffffffffffffffffffffffffff1681526020019081526020016000206001016040518082805460018160011615610100020316600290048015610f485780601f10610f26576101008083540402835291820191610f48565b820191906000526020600020905b815481529060010190602001808311610f34575b5050915050604051809103902060001916141561100057818360090182815481101515610f7157fe5b9060005260206000200160009054906101000a900473ffffffffffffffffffffffffffffffffffffffff1690806001815401808255809150509060018203906000526020600020016000909192909190916101000a81548173ffffffffffffffffffffffffffffffffffffffff021916908373ffffffffffffffffffffffffffffffffffffffff160217905550505b8080600101915050610e25565b505050919050565b6000809054906101000a900473ffffffffffffffffffffffffffffffffffffffff1673ffffffffffffffffffffffffffffffffffffffff163373ffffffffffffffffffffffffffffffffffffffff1614156110a4576000809054906101000a900473ffffffffffffffffffffffffffffffffffffffff1673ffffffffffffffffffffffffffffffffffffffff16ff5b565b6001818154811015156110b557fe5b90600052602060002090600a02016000915090508060000160009054906101000a900473ffffffffffffffffffffffffffffffffffffffff1690806001015490806002015490806003018054600181600116156101000203166002900480601f0160208091040260200160405190810160405280929190818152602001828054600181600116156101000203166002900480156111935780601f1061116857610100808354040283529160200191611193565b820191906000526020600020905b81548152906001019060200180831161117657829003601f168201915b505050505090806004018054600181600116156101000203166002900480601f0160208091040260200160405190810160405280929190818152602001828054600181600116156101000203166002900480156112315780601f1061120657610100808354040283529160200191611231565b820191906000526020600020905b81548152906001019060200180831161121457829003601f168201915b5050505050908060050154908060060154908060070154905088565b606060018281548110151561125e57fe5b90600052602060002090600a02016009018054806020026020016040519081016040528092919081815260200182805480156112ef57602002820191906000526020600020905b8160009054906101000a900473ffffffffffffffffffffffffffffffffffffffff1673ffffffffffffffffffffffffffffffffffffffff16815260200190600101908083116112a5575b50505050509050919050565b600080600060608060008060008060018a81548110151561131857fe5b90600052602060002090600a020190508060000160009054906101000a900473ffffffffffffffffffffffffffffffffffffffff16816001015482600201548360030184600401856005015486600601548760070154848054600181600116156101000203166002900480601f0160208091040260200160405190810160405280929190818152602001828054600181600116156101000203166002900480156114035780601f106113d857610100808354040283529160200191611403565b820191906000526020600020905b8154815290600101906020018083116113e657829003601f168201915b50505050509450838054600181600116156101000203166002900480601f01602080910402602001604051908101604052809291908181526020018280546001816001161561010002031660029004801561149f5780601f106114745761010080835404028352916020019161149f565b820191906000526020600020905b81548152906001019060200180831161148257829003601f168201915b505050505093509850985098509850985098509850985050919395975091939597565b6000600180549050905090565b6000809054906101000a900473ffffffffffffffffffffffffffffffffffffffff1681565b606060018381548110151561150557fe5b90600052602060002090600a020160080160008373ffffffffffffffffffffffffffffffffffffffff1673ffffffffffffffffffffffffffffffffffffffff1681526020019081526020016000206001018054600181600116156101000203166002900480601f0160208091040260200160405190810160405280929190818152602001828054600181600116156101000203166002900480156115ea5780601f106115bf576101008083540402835291602001916115ea565b820191906000526020600020905b8154815290600101906020018083116115cd57829003601f168201915b5050505050905092915050565b60606001610120604051908101604052803373ffffffffffffffffffffffffffffffffffffffff168152602001898152602001888152602001878152602001868152602001428152602001858152602001848152602001838152509080600181540180825580915050906001820390600052602060002090600a02016000909192909190915060008201518160000160006101000a81548173ffffffffffffffffffffffffffffffffffffffff021916908373ffffffffffffffffffffffffffffffffffffffff160217905550602082015181600101556040820151816002015560608201518160030190805190602001906116f4929190611f91565b506080820151816004019080519060200190611711929190611f91565b5060a0820151816005015560c0820151816006015560e0820151816007015561010082015181600901908051906020019061174d929190612011565b5050505050505050505050565b60008060018381548110151561176c57fe5b90600052602060002090600a0201915081600601544210151561178e57600080fd5b8160000160009054906101000a900473ffffffffffffffffffffffffffffffffffffffff1673ffffffffffffffffffffffffffffffffffffffff163373ffffffffffffffffffffffffffffffffffffffff16141561190d57600090505b816009018054905081101561190857816009018181548110151561180b57fe5b9060005260206000200160009054906101000a900473ffffffffffffffffffffffffffffffffffffffff1673ffffffffffffffffffffffffffffffffffffffff166108fc836008016000856009018581548110151561186657fe5b9060005260206000200160009054906101000a900473ffffffffffffffffffffffffffffffffffffffff1673ffffffffffffffffffffffffffffffffffffffff1673ffffffffffffffffffffffffffffffffffffffff168152602001908152602001600020600001549081150290604051600060405180830381858888f193505050501580156118fa573d6000803e3d6000fd5b5080806001019150506117eb565b6119a9565b61191783336119b4565b156119a8573373ffffffffffffffffffffffffffffffffffffffff166108fc8360080160003373ffffffffffffffffffffffffffffffffffffffff1673ffffffffffffffffffffffffffffffffffffffff168152602001908152602001600020600001549081150290604051600060405180830381858888f193505050501580156119a6573d6000803e3d6000fd5b505b5b505050565b60025481565b60008060006001858154811015156119c857fe5b90600052602060002090600a02019150600090505b8160090180549050811015611a71578373ffffffffffffffffffffffffffffffffffffffff168260090182815481101515611a1457fe5b9060005260206000200160009054906101000a900473ffffffffffffffffffffffffffffffffffffffff1673ffffffffffffffffffffffffffffffffffffffff161415611a645760019250611a76565b80806001019150506119dd565b600092505b505092915050565b6000611a8a82336119b4565b1515611a9557600080fd5b600182815481101515611aa457fe5b90600052602060002090600a020190508060000160009054906101000a900473ffffffffffffffffffffffffffffffffffffffff1673ffffffffffffffffffffffffffffffffffffffff166108fc8260080160003373ffffffffffffffffffffffffffffffffffffffff1673ffffffffffffffffffffffffffffffffffffffff168152602001908152602001600020600001549081150290604051600060405180830381858888f19350505050158015611b62573d6000803e3d6000fd5b506040805190810160405280600a81526020017f636f6d706c6574696f6e000000000000000000000000000000000000000000008152508160080160003373ffffffffffffffffffffffffffffffffffffffff1673ffffffffffffffffffffffffffffffffffffffff1681526020019081526020016000206001019080519060200190611bf0929190611f11565b505050565b6000809054906101000a900473ffffffffffffffffffffffffffffffffffffffff1673ffffffffffffffffffffffffffffffffffffffff163373ffffffffffffffffffffffffffffffffffffffff161415611cc257600073ffffffffffffffffffffffffffffffffffffffff168173ffffffffffffffffffffffffffffffffffffffff16141515611cc157806000806101000a81548173ffffffffffffffffffffffffffffffffffffffff021916908373ffffffffffffffffffffffffffffffffffffffff1602179055505b5b50565b6000611cd182336119b4565b1515611cdc57600080fd5b600182815481101515611ceb57fe5b90600052602060002090600a0201905060405180807f70617373656e67657273436f6e6669726d65640000000000000000000000000081525060130190506040518091039020600019168160080160003373ffffffffffffffffffffffffffffffffffffffff1673ffffffffffffffffffffffffffffffffffffffff1681526020019081526020016000206001016040518082805460018160011615610100020316600290048015611dd45780601f10611db2576101008083540402835291820191611dd4565b820191906000526020600020905b815481529060010190602001808311611dc0575b50509150506040518091039020600019161415611e7e576040805190810160405280600781526020017f656e526f757465000000000000000000000000000000000000000000000000008152508160080160003373ffffffffffffffffffffffffffffffffffffffff1673ffffffffffffffffffffffffffffffffffffffff1681526020019081526020016000206001019080519060200190611e78929190611f11565b50611f0d565b6040805190810160405280600f81526020017f647269766572436f6e6669726d656400000000000000000000000000000000008152508160080160003373ffffffffffffffffffffffffffffffffffffffff1673ffffffffffffffffffffffffffffffffffffffff1681526020019081526020016000206001019080519060200190611f0b929190611f11565b505b5050565b828054600181600116156101000203166002900490600052602060002090601f016020900481019282601f10611f5257805160ff1916838001178555611f80565b82800160010185558215611f80579182015b82811115611f7f578251825591602001919060010190611f64565b5b509050611f8d919061209b565b5090565b828054600181600116156101000203166002900490600052602060002090601f016020900481019282601f10611fd257805160ff1916838001178555612000565b82800160010185558215612000579182015b82811115611fff578251825591602001919060010190611fe4565b5b50905061200d919061209b565b5090565b82805482825590600052602060002090810192821561208a579160200282015b828111156120895782518260006101000a81548173ffffffffffffffffffffffffffffffffffffffff021916908373ffffffffffffffffffffffffffffffffffffffff16021790555091602001919060010190612031565b5b50905061209791906120c0565b5090565b6120bd91905b808211156120b95760008160009055506001016120a1565b5090565b90565b61210091905b808211156120fc57600081816101000a81549073ffffffffffffffffffffffffffffffffffffffff0219169055506001016120c6565b5090565b905600a165627a7a7230582066bcbfa1e6c003cc2a8d9fa2991dbde790d18841c530ac4db0a31cf807ee0b990029",
  "source": "pragma solidity ^0.4.2;\n\nimport \"./zeppelin/lifecycle/Killable.sol\";\n\ncontract Rideshare is Killable {\n    struct Passenger {\n        uint256 price;\n        string state; // initial, driverConfirmed, passengerConfirmed, enRoute, completion, canceled\n    }\n\n    struct Ride {\n        address driver;\n        uint256 drivingCost;\n        uint256 capacity;\n        string originAddress;\n        string destAddress;\n        uint256 createdAt;\n        uint256 confirmedAt;\n        uint256 departAt;\n        mapping(address => Passenger) passengers;\n        address[] passengerAccts;\n    }\n\n    Ride[] public rides;\n    uint256 public rideCount;\n\n    mapping(address => uint256) reputation;\n\n    // for now, only drivers can create Rides\n    function createRide(\n        uint256 _driverCost,\n        uint256 _capacity,\n        string _originAddress,\n        string _destAddress,\n        uint256 _confirmedAt,\n        uint256 _departAt\n    ) {\n        address[] memory _passengerAccts;\n        rides.push(\n            Ride(\n                msg.sender,\n                _driverCost,\n                _capacity,\n                _originAddress,\n                _destAddress,\n                block.timestamp,\n                _confirmedAt,\n                _departAt,\n                _passengerAccts\n            )\n        );\n    }\n\n    // called by passenger\n    function joinRide(uint256 rideNumber) public payable {\n        Ride curRide = rides[rideNumber];\n        require(msg.sender != curRide.driver);\n        require(msg.value == curRide.drivingCost);\n\n        var passenger = curRide.passengers[msg.sender];\n\n        passenger.price = msg.value;\n        passenger.state = \"initial\";\n\n        rides[rideNumber].passengerAccts.push(msg.sender) - 1; //***\n    }\n\n    function getPassengers(uint256 rideNumber) public view returns (address[]) {\n        return rides[rideNumber].passengerAccts;\n    }\n\n    function getPassengerRideState(uint256 rideNumber, address passenger)\n        public\n        view\n        returns (string)\n    {\n        return rides[rideNumber].passengers[passenger].state;\n    }\n\n    function getRide(uint256 rideNumber)\n        public\n        view\n        returns (\n            address _driver,\n            uint256 _drivingCost,\n            uint256 _capacity,\n            string _originAddress,\n            string _destAddress,\n            uint256 _createdAt,\n            uint256 _confirmedAt,\n            uint256 _departAt\n        )\n    {\n        Ride ride = rides[rideNumber];\n        return (\n            ride.driver,\n            ride.drivingCost,\n            ride.capacity,\n            ride.originAddress,\n            ride.destAddress,\n            ride.createdAt,\n            ride.confirmedAt,\n            ride.departAt\n        );\n    }\n\n    function getRideCount() public constant returns (uint256) {\n        return rides.length;\n    }\n\n    function passengerInRide(uint256 rideNumber, address passengerAcct)\n        returns (bool)\n    {\n        Ride curRide = rides[rideNumber];\n        for (uint256 i = 0; i < curRide.passengerAccts.length; i++) {\n            if (curRide.passengerAccts[i] == passengerAcct) {\n                return true;\n            }\n        }\n        return false;\n    }\n\n    function cancelRide(uint256 rideNumber) {\n        Ride curRide = rides[rideNumber];\n        require(block.timestamp < curRide.confirmedAt);\n        if (msg.sender == curRide.driver) {\n            for (uint256 i = 0; i < curRide.passengerAccts.length; i++) {\n                curRide.passengerAccts[i].transfer(\n                    curRide.passengers[curRide.passengerAccts[i]].price\n                );\n            }\n        } else if (passengerInRide(rideNumber, msg.sender)) {\n            msg.sender.transfer(curRide.passengers[msg.sender].price);\n        }\n    }\n\n    // called by passenger\n    function confirmDriverMet(uint256 rideNumber) {\n        require(passengerInRide(rideNumber, msg.sender));\n        Ride curRide = rides[rideNumber];\n        if (\n            keccak256(curRide.passengers[msg.sender].state) ==\n            keccak256(\"passengersConfirmed\")\n        ) {\n            curRide.passengers[msg.sender].state = \"enRoute\";\n        } else {\n            curRide.passengers[msg.sender].state = \"driverConfirmed\";\n        }\n    }\n\n    // called by driver\n    function confirmPassengersMet(\n        uint256 rideNumber,\n        address[] passengerAddresses\n    ) {\n        Ride curRide = rides[rideNumber];\n        require(msg.sender == curRide.driver);\n        for (uint256 i = 0; i < passengerAddresses.length; i++) {\n            string curState = curRide.passengers[passengerAddresses[i]].state;\n            if (\n                keccak256(curRide.passengers[passengerAddresses[i]].state) ==\n                keccak256(\"driverConfirmed\")\n            ) {\n                curRide.passengers[passengerAddresses[i]].state = \"enRoute\";\n            } else {\n                curRide.passengers[passengerAddresses[i]]\n                    .state = \"passengersConfirmed\";\n            }\n        }\n        // require(rides[rideNumber].state == \"confirmed\");\n    }\n\n    function enRouteList(uint256 rideNumber) public view returns (address[]) {\n        Ride curRide = rides[rideNumber];\n        address[] addressesEnRoute;\n        for (uint256 i = 0; i < curRide.passengerAccts.length; i++) {\n            if (\n                keccak256(\n                    curRide.passengers[curRide.passengerAccts[i]].state\n                ) == keccak256(\"enRoute\")\n            ) {\n                addressesEnRoute.push(curRide.passengerAccts[i]);\n            }\n        }\n    }\n\n    // called by passenger\n    function arrived(uint256 rideNumber) {\n        require(passengerInRide(rideNumber, msg.sender));\n        Ride curRide = rides[rideNumber];\n        curRide.driver.transfer(curRide.passengers[msg.sender].price);\n        curRide.passengers[msg.sender].state = \"completion\";\n    }\n}\n",
  "sourcePath": "/home/ramji/CryptoPool/contracts/Rideshare.sol",
  "compiler": {
    "name": "solc",
    "version": "0.4.26+commit.4563c3fc.Emscripten.clang"
  },
  "schemaVersion": "3.3.4",
  "updatedAt": "2021-04-20T07:13:35.266Z",
  "networkType": "ethereum",
  "devdoc": {
    "methods": {}
  },
  "userdoc": {
    "methods": {}
  }
}